{
  "abi": [
    {
      "inputs": [],
      "stateMutability": "nonpayable",
      "type": "constructor"
    },
    {
      "inputs": [],
      "name": "Donate",
      "outputs": [],
      "stateMutability": "payable",
      "type": "function"
    },
    {
      "inputs": [],
      "name": "MoneyBack",
      "outputs": [],
      "stateMutability": "nonpayable",
      "type": "function"
    },
    {
      "inputs": [],
      "name": "owner",
      "outputs": [
        {
          "internalType": "address",
          "name": "",
          "type": "address"
        }
      ],
      "stateMutability": "view",
      "type": "function"
    },
    {
      "inputs": [
        {
          "internalType": "address",
          "name": "",
          "type": "address"
        }
      ],
      "name": "payments",
      "outputs": [
        {
          "internalType": "uint256",
          "name": "",
          "type": "uint256"
        }
      ],
      "stateMutability": "view",
      "type": "function"
    }
  ],
  "bytecode": {
    "object": "0x608060405234801561001057600080fd5b50600080546001600160a01b03191633179055610194806100326000396000f3fe60806040526004361061003f5760003560e01c806371eb7838146100445780638da5cb5b1461005b578063d917deb514610098578063e2982c21146100af575b600080fd5b34801561005057600080fd5b506100596100ea565b005b34801561006757600080fd5b5060005461007b906001600160a01b031681565b6040516001600160a01b0390911681526020015b60405180910390f35b610059336000908152600160205260409020349055565b3480156100bb57600080fd5b506100dc6100ca36600461012e565b60016020526000908152604090205481565b60405190815260200161008f565b600080546040516001600160a01b039091169130918391833180156108fc02929091818181858888f19350505050158015610129573d6000803e3d6000fd5b505050565b60006020828403121561014057600080fd5b81356001600160a01b038116811461015757600080fd5b939250505056fea2646970667358221220687df8fbb94fcf91b140bfe16df9b701aa3f81bb6afdf66279f5b2a8f956425864736f6c63430008110033",
    "linkReferences": {}
  },
  "methodIdentifiers": {
    "Donate()": "d917deb5",
    "MoneyBack()": "71eb7838",
    "owner()": "8da5cb5b",
    "payments(address)": "e2982c21"
  },
  "id": 29
}